{
  "_format": "hh-sol-artifact-1",
  "contractName": "AssetManager",
  "sourceName": "contracts/AssetManager.sol",
  "abi": [
    {
      "inputs": [],
      "stateMutability": "nonpayable",
      "type": "constructor"
    },
    {
      "inputs": [
        {
          "internalType": "address",
          "name": "sender",
          "type": "address"
        },
        {
          "internalType": "uint256",
          "name": "tokenId",
          "type": "uint256"
        },
        {
          "internalType": "address",
          "name": "owner",
          "type": "address"
        }
      ],
      "name": "ERC721IncorrectOwner",
      "type": "error"
    },
    {
      "inputs": [
        {
          "internalType": "address",
          "name": "operator",
          "type": "address"
        },
        {
          "internalType": "uint256",
          "name": "tokenId",
          "type": "uint256"
        }
      ],
      "name": "ERC721InsufficientApproval",
      "type": "error"
    },
    {
      "inputs": [
        {
          "internalType": "address",
          "name": "approver",
          "type": "address"
        }
      ],
      "name": "ERC721InvalidApprover",
      "type": "error"
    },
    {
      "inputs": [
        {
          "internalType": "address",
          "name": "operator",
          "type": "address"
        }
      ],
      "name": "ERC721InvalidOperator",
      "type": "error"
    },
    {
      "inputs": [
        {
          "internalType": "address",
          "name": "owner",
          "type": "address"
        }
      ],
      "name": "ERC721InvalidOwner",
      "type": "error"
    },
    {
      "inputs": [
        {
          "internalType": "address",
          "name": "receiver",
          "type": "address"
        }
      ],
      "name": "ERC721InvalidReceiver",
      "type": "error"
    },
    {
      "inputs": [
        {
          "internalType": "address",
          "name": "sender",
          "type": "address"
        }
      ],
      "name": "ERC721InvalidSender",
      "type": "error"
    },
    {
      "inputs": [
        {
          "internalType": "uint256",
          "name": "tokenId",
          "type": "uint256"
        }
      ],
      "name": "ERC721NonexistentToken",
      "type": "error"
    },
    {
      "inputs": [
        {
          "internalType": "address",
          "name": "owner",
          "type": "address"
        }
      ],
      "name": "OwnableInvalidOwner",
      "type": "error"
    },
    {
      "inputs": [
        {
          "internalType": "address",
          "name": "account",
          "type": "address"
        }
      ],
      "name": "OwnableUnauthorizedAccount",
      "type": "error"
    },
    {
      "anonymous": false,
      "inputs": [
        {
          "indexed": true,
          "internalType": "address",
          "name": "owner",
          "type": "address"
        },
        {
          "indexed": true,
          "internalType": "address",
          "name": "approved",
          "type": "address"
        },
        {
          "indexed": true,
          "internalType": "uint256",
          "name": "tokenId",
          "type": "uint256"
        }
      ],
      "name": "Approval",
      "type": "event"
    },
    {
      "anonymous": false,
      "inputs": [
        {
          "indexed": true,
          "internalType": "address",
          "name": "owner",
          "type": "address"
        },
        {
          "indexed": true,
          "internalType": "address",
          "name": "operator",
          "type": "address"
        },
        {
          "indexed": false,
          "internalType": "bool",
          "name": "approved",
          "type": "bool"
        }
      ],
      "name": "ApprovalForAll",
      "type": "event"
    },
    {
      "anonymous": false,
      "inputs": [
        {
          "indexed": true,
          "internalType": "address",
          "name": "previousOwner",
          "type": "address"
        },
        {
          "indexed": true,
          "internalType": "address",
          "name": "newOwner",
          "type": "address"
        }
      ],
      "name": "OwnershipTransferred",
      "type": "event"
    },
    {
      "anonymous": false,
      "inputs": [
        {
          "indexed": true,
          "internalType": "address",
          "name": "from",
          "type": "address"
        },
        {
          "indexed": true,
          "internalType": "address",
          "name": "to",
          "type": "address"
        },
        {
          "indexed": true,
          "internalType": "uint256",
          "name": "tokenId",
          "type": "uint256"
        }
      ],
      "name": "Transfer",
      "type": "event"
    },
    {
      "inputs": [
        {
          "internalType": "address",
          "name": "to",
          "type": "address"
        },
        {
          "internalType": "uint256",
          "name": "tokenId",
          "type": "uint256"
        }
      ],
      "name": "approve",
      "outputs": [],
      "stateMutability": "nonpayable",
      "type": "function"
    },
    {
      "inputs": [
        {
          "internalType": "address",
          "name": "owner",
          "type": "address"
        }
      ],
      "name": "balanceOf",
      "outputs": [
        {
          "internalType": "uint256",
          "name": "",
          "type": "uint256"
        }
      ],
      "stateMutability": "view",
      "type": "function"
    },
    {
      "inputs": [
        {
          "internalType": "uint256",
          "name": "tokenId",
          "type": "uint256"
        }
      ],
      "name": "getApproved",
      "outputs": [
        {
          "internalType": "address",
          "name": "",
          "type": "address"
        }
      ],
      "stateMutability": "view",
      "type": "function"
    },
    {
      "inputs": [
        {
          "internalType": "uint256",
          "name": "tokenId",
          "type": "uint256"
        }
      ],
      "name": "getAsset",
      "outputs": [
        {
          "internalType": "string",
          "name": "",
          "type": "string"
        },
        {
          "internalType": "address[]",
          "name": "",
          "type": "address[]"
        }
      ],
      "stateMutability": "view",
      "type": "function"
    },
    {
      "inputs": [
        {
          "internalType": "uint256",
          "name": "tokenId",
          "type": "uint256"
        },
        {
          "internalType": "address",
          "name": "user",
          "type": "address"
        }
      ],
      "name": "grantUsageRight",
      "outputs": [],
      "stateMutability": "nonpayable",
      "type": "function"
    },
    {
      "inputs": [
        {
          "internalType": "uint256",
          "name": "tokenId",
          "type": "uint256"
        },
        {
          "internalType": "address[]",
          "name": "users",
          "type": "address[]"
        }
      ],
      "name": "grantUsageRights",
      "outputs": [],
      "stateMutability": "nonpayable",
      "type": "function"
    },
    {
      "inputs": [
        {
          "internalType": "uint256",
          "name": "tokenId",
          "type": "uint256"
        },
        {
          "internalType": "address",
          "name": "user",
          "type": "address"
        }
      ],
      "name": "hasUsage",
      "outputs": [
        {
          "internalType": "bool",
          "name": "",
          "type": "bool"
        }
      ],
      "stateMutability": "view",
      "type": "function"
    },
    {
      "inputs": [
        {
          "internalType": "address",
          "name": "owner",
          "type": "address"
        },
        {
          "internalType": "address",
          "name": "operator",
          "type": "address"
        }
      ],
      "name": "isApprovedForAll",
      "outputs": [
        {
          "internalType": "bool",
          "name": "",
          "type": "bool"
        }
      ],
      "stateMutability": "view",
      "type": "function"
    },
    {
      "inputs": [
        {
          "internalType": "string",
          "name": "s3Url",
          "type": "string"
        },
        {
          "internalType": "address",
          "name": "to",
          "type": "address"
        }
      ],
      "name": "mint",
      "outputs": [],
      "stateMutability": "nonpayable",
      "type": "function"
    },
    {
      "inputs": [],
      "name": "name",
      "outputs": [
        {
          "internalType": "string",
          "name": "",
          "type": "string"
        }
      ],
      "stateMutability": "view",
      "type": "function"
    },
    {
      "inputs": [],
      "name": "nextTokenId",
      "outputs": [
        {
          "internalType": "uint256",
          "name": "",
          "type": "uint256"
        }
      ],
      "stateMutability": "view",
      "type": "function"
    },
    {
      "inputs": [],
      "name": "owner",
      "outputs": [
        {
          "internalType": "address",
          "name": "",
          "type": "address"
        }
      ],
      "stateMutability": "view",
      "type": "function"
    },
    {
      "inputs": [
        {
          "internalType": "uint256",
          "name": "tokenId",
          "type": "uint256"
        }
      ],
      "name": "ownerOf",
      "outputs": [
        {
          "internalType": "address",
          "name": "",
          "type": "address"
        }
      ],
      "stateMutability": "view",
      "type": "function"
    },
    {
      "inputs": [],
      "name": "renounceOwnership",
      "outputs": [],
      "stateMutability": "nonpayable",
      "type": "function"
    },
    {
      "inputs": [
        {
          "internalType": "uint256",
          "name": "tokenId",
          "type": "uint256"
        },
        {
          "internalType": "address",
          "name": "user",
          "type": "address"
        }
      ],
      "name": "revokeUsageRight",
      "outputs": [],
      "stateMutability": "nonpayable",
      "type": "function"
    },
    {
      "inputs": [
        {
          "internalType": "address",
          "name": "from",
          "type": "address"
        },
        {
          "internalType": "address",
          "name": "to",
          "type": "address"
        },
        {
          "internalType": "uint256",
          "name": "tokenId",
          "type": "uint256"
        }
      ],
      "name": "safeTransferFrom",
      "outputs": [],
      "stateMutability": "nonpayable",
      "type": "function"
    },
    {
      "inputs": [
        {
          "internalType": "address",
          "name": "from",
          "type": "address"
        },
        {
          "internalType": "address",
          "name": "to",
          "type": "address"
        },
        {
          "internalType": "uint256",
          "name": "tokenId",
          "type": "uint256"
        },
        {
          "internalType": "bytes",
          "name": "data",
          "type": "bytes"
        }
      ],
      "name": "safeTransferFrom",
      "outputs": [],
      "stateMutability": "nonpayable",
      "type": "function"
    },
    {
      "inputs": [
        {
          "internalType": "address",
          "name": "operator",
          "type": "address"
        },
        {
          "internalType": "bool",
          "name": "approved",
          "type": "bool"
        }
      ],
      "name": "setApprovalForAll",
      "outputs": [],
      "stateMutability": "nonpayable",
      "type": "function"
    },
    {
      "inputs": [
        {
          "internalType": "bytes4",
          "name": "interfaceId",
          "type": "bytes4"
        }
      ],
      "name": "supportsInterface",
      "outputs": [
        {
          "internalType": "bool",
          "name": "",
          "type": "bool"
        }
      ],
      "stateMutability": "view",
      "type": "function"
    },
    {
      "inputs": [],
      "name": "symbol",
      "outputs": [
        {
          "internalType": "string",
          "name": "",
          "type": "string"
        }
      ],
      "stateMutability": "view",
      "type": "function"
    },
    {
      "inputs": [
        {
          "internalType": "uint256",
          "name": "tokenId",
          "type": "uint256"
        }
      ],
      "name": "tokenURI",
      "outputs": [
        {
          "internalType": "string",
          "name": "",
          "type": "string"
        }
      ],
      "stateMutability": "view",
      "type": "function"
    },
    {
      "inputs": [
        {
          "internalType": "address",
          "name": "from",
          "type": "address"
        },
        {
          "internalType": "address",
          "name": "to",
          "type": "address"
        },
        {
          "internalType": "uint256",
          "name": "tokenId",
          "type": "uint256"
        }
      ],
      "name": "transferFrom",
      "outputs": [],
      "stateMutability": "nonpayable",
      "type": "function"
    },
    {
      "inputs": [
        {
          "internalType": "address",
          "name": "newOwner",
          "type": "address"
        }
      ],
      "name": "transferOwnership",
      "outputs": [],
      "stateMutability": "nonpayable",
      "type": "function"
    }
  ],
  "bytecode": "0x608060405234801561001057600080fd5b50336040518060400160405280600881526020017f474c4241737365740000000000000000000000000000000000000000000000008152506040518060400160405280600481526020017f474c424100000000000000000000000000000000000000000000000000000000815250816000908161008d919061043d565b50806001908161009d919061043d565b505050600073ffffffffffffffffffffffffffffffffffffffff168173ffffffffffffffffffffffffffffffffffffffff16036101125760006040517f1e4fbdf70000000000000000000000000000000000000000000000000000000081526004016101099190610550565b60405180910390fd5b6101218161012760201b60201c565b5061056b565b6000600660009054906101000a900473ffffffffffffffffffffffffffffffffffffffff16905081600660006101000a81548173ffffffffffffffffffffffffffffffffffffffff021916908373ffffffffffffffffffffffffffffffffffffffff1602179055508173ffffffffffffffffffffffffffffffffffffffff168173ffffffffffffffffffffffffffffffffffffffff167f8be0079c531659141344cd1fd0a4f28419497f9722a3daafe3b4186f6b6457e060405160405180910390a35050565b600081519050919050565b7f4e487b7100000000000000000000000000000000000000000000000000000000600052604160045260246000fd5b7f4e487b7100000000000000000000000000000000000000000000000000000000600052602260045260246000fd5b6000600282049050600182168061026e57607f821691505b60208210810361028157610280610227565b5b50919050565b60008190508160005260206000209050919050565b60006020601f8301049050919050565b600082821b905092915050565b6000600883026102e97fffffffffffffffffffffffffffffffffffffffffffffffffffffffffffffffff826102ac565b6102f386836102ac565b95508019841693508086168417925050509392505050565b6000819050919050565b6000819050919050565b600061033a6103356103308461030b565b610315565b61030b565b9050919050565b6000819050919050565b6103548361031f565b61036861036082610341565b8484546102b9565b825550505050565b600090565b61037d610370565b61038881848461034b565b505050565b5b818110156103ac576103a1600082610375565b60018101905061038e565b5050565b601f8211156103f1576103c281610287565b6103cb8461029c565b810160208510156103da578190505b6103ee6103e68561029c565b83018261038d565b50505b505050565b600082821c905092915050565b6000610414600019846008026103f6565b1980831691505092915050565b600061042d8383610403565b9150826002028217905092915050565b610446826101ed565b67ffffffffffffffff81111561045f5761045e6101f8565b5b6104698254610256565b6104748282856103b0565b600060209050601f8311600181146104a75760008415610495578287015190505b61049f8582610421565b865550610507565b601f1984166104b586610287565b60005b828110156104dd578489015182556001820191506020850194506020810190506104b8565b868310156104fa57848901516104f6601f891682610403565b8355505b6001600288020188555050505b505050505050565b600073ffffffffffffffffffffffffffffffffffffffff82169050919050565b600061053a8261050f565b9050919050565b61054a8161052f565b82525050565b60006020820190506105656000830184610541565b92915050565b612ec88061057a6000396000f3fe608060405234801561001057600080fd5b506004361061014d5760003560e01c8063715018a6116100c3578063b88d4fde1161007c578063b88d4fde14610388578063ba0c5bfd146103a4578063c87b56dd146103c0578063e985e9c5146103f0578063eac8f5b814610420578063f2fde38b146104515761014d565b8063715018a6146102ec57806375794a3c146102f65780638752d201146103145780638da5cb5b1461033057806395d89b411461034e578063a22cb4651461036c5761014d565b80631c351a9d116101155780631c351a9d1461021c57806323b872dd1461023857806342842e0e146102545780636352211e14610270578063701e8279146102a057806370a08231146102bc5761014d565b806301ffc9a71461015257806306fdde0314610182578063081812fc146101a0578063095ea7b3146101d05780631a285673146101ec575b600080fd5b61016c6004803603810190610167919061202c565b61046d565b6040516101799190612074565b60405180910390f35b61018a61054f565b604051610197919061211f565b60405180910390f35b6101ba60048036038101906101b59190612177565b6105e1565b6040516101c791906121e5565b60405180910390f35b6101ea60048036038101906101e5919061222c565b6105fd565b005b6102066004803603810190610201919061226c565b610613565b6040516102139190612074565b60405180910390f35b610236600480360381019061023191906123e1565b61067e565b005b610252600480360381019061024d919061243d565b6106d8565b005b61026e6004803603810190610269919061243d565b6107da565b005b61028a60048036038101906102859190612177565b6107fa565b60405161029791906121e5565b60405180910390f35b6102ba60048036038101906102b59190612558565b61080c565b005b6102d660048036038101906102d191906125b4565b610a19565b6040516102e391906125f0565b60405180910390f35b6102f4610ad3565b005b6102fe610ae7565b60405161030b91906125f0565b60405180910390f35b61032e6004803603810190610329919061226c565b610aed565b005b610338610c92565b60405161034591906121e5565b60405180910390f35b610356610cbc565b604051610363919061211f565b60405180910390f35b61038660048036038101906103819190612637565b610d4e565b005b6103a2600480360381019061039d9190612718565b610d64565b005b6103be60048036038101906103b9919061226c565b610d89565b005b6103da60048036038101906103d59190612177565b610e75565b6040516103e7919061211f565b60405180910390f35b61040a6004803603810190610405919061279b565b610ede565b6040516104179190612074565b60405180910390f35b61043a60048036038101906104359190612177565b610f72565b604051610448929190612899565b60405180910390f35b61046b600480360381019061046691906125b4565b6110b2565b005b60007f80ac58cd000000000000000000000000000000000000000000000000000000007bffffffffffffffffffffffffffffffffffffffffffffffffffffffff1916827bffffffffffffffffffffffffffffffffffffffffffffffffffffffff1916148061053857507f5b5e139f000000000000000000000000000000000000000000000000000000007bffffffffffffffffffffffffffffffffffffffffffffffffffffffff1916827bffffffffffffffffffffffffffffffffffffffffffffffffffffffff1916145b80610548575061054782611138565b5b9050919050565b60606000805461055e906128ff565b80601f016020809104026020016040519081016040528092919081815260200182805461058a906128ff565b80156105d75780601f106105ac576101008083540402835291602001916105d7565b820191906000526020600020905b8154815290600101906020018083116105ba57829003601f168201915b5050505050905090565b60006105ec826111a2565b506105f68261122a565b9050919050565b61060f828261060a611267565b61126f565b5050565b60006008600084815260200190815260200160002060020160008373ffffffffffffffffffffffffffffffffffffffff1673ffffffffffffffffffffffffffffffffffffffff16815260200190815260200160002060009054906101000a900460ff16905092915050565b610686611281565b600060075490506106978282611308565b826008600083815260200190815260200160002060000190816106ba9190612adc565b50600760008154809291906106ce90612bdd565b9190505550505050565b600073ffffffffffffffffffffffffffffffffffffffff168273ffffffffffffffffffffffffffffffffffffffff160361074a5760006040517f64a0ae9200000000000000000000000000000000000000000000000000000000815260040161074191906121e5565b60405180910390fd5b600061075e8383610759611267565b611401565b90508373ffffffffffffffffffffffffffffffffffffffff168173ffffffffffffffffffffffffffffffffffffffff16146107d4578382826040517f64283d7b0000000000000000000000000000000000000000000000000000000081526004016107cb93929190612c25565b60405180910390fd5b50505050565b6107f583838360405180602001604052806000815250610d64565b505050565b6000610805826111a2565b9050919050565b3373ffffffffffffffffffffffffffffffffffffffff1661082c836107fa565b73ffffffffffffffffffffffffffffffffffffffff1614610882576040517f08c379a000000000000000000000000000000000000000000000000000000000815260040161087990612ca8565b60405180910390fd5b600060086000848152602001908152602001600020905060005b8251811015610a13578160020160008483815181106108be576108bd612cc8565b5b602002602001015173ffffffffffffffffffffffffffffffffffffffff1673ffffffffffffffffffffffffffffffffffffffff16815260200190815260200160002060009054906101000a900460ff16610a06578160010183828151811061092957610928612cc8565b5b60200260200101519080600181540180825580915050600190039060005260206000200160009091909190916101000a81548173ffffffffffffffffffffffffffffffffffffffff021916908373ffffffffffffffffffffffffffffffffffffffff16021790555060018260020160008584815181106109ac576109ab612cc8565b5b602002602001015173ffffffffffffffffffffffffffffffffffffffff1673ffffffffffffffffffffffffffffffffffffffff16815260200190815260200160002060006101000a81548160ff0219169083151502179055505b808060010191505061089c565b50505050565b60008073ffffffffffffffffffffffffffffffffffffffff168273ffffffffffffffffffffffffffffffffffffffff1603610a8c5760006040517f89c62b64000000000000000000000000000000000000000000000000000000008152600401610a8391906121e5565b60405180910390fd5b600360008373ffffffffffffffffffffffffffffffffffffffff1673ffffffffffffffffffffffffffffffffffffffff168152602001908152602001600020549050919050565b610adb611281565b610ae5600061161b565b565b60075481565b3373ffffffffffffffffffffffffffffffffffffffff16610b0d836107fa565b73ffffffffffffffffffffffffffffffffffffffff1614610b63576040517f08c379a0000000000000000000000000000000000000000000000000000000008152600401610b5a90612ca8565b60405180910390fd5b60006008600084815260200190815260200160002090508060020160008373ffffffffffffffffffffffffffffffffffffffff1673ffffffffffffffffffffffffffffffffffffffff16815260200190815260200160002060009054906101000a900460ff16610c8d5780600101829080600181540180825580915050600190039060005260206000200160009091909190916101000a81548173ffffffffffffffffffffffffffffffffffffffff021916908373ffffffffffffffffffffffffffffffffffffffff16021790555060018160020160008473ffffffffffffffffffffffffffffffffffffffff1673ffffffffffffffffffffffffffffffffffffffff16815260200190815260200160002060006101000a81548160ff0219169083151502179055505b505050565b6000600660009054906101000a900473ffffffffffffffffffffffffffffffffffffffff16905090565b606060018054610ccb906128ff565b80601f0160208091040260200160405190810160405280929190818152602001828054610cf7906128ff565b8015610d445780601f10610d1957610100808354040283529160200191610d44565b820191906000526020600020905b815481529060010190602001808311610d2757829003601f168201915b5050505050905090565b610d60610d59611267565b83836116e1565b5050565b610d6f8484846106d8565b610d83610d7a611267565b85858585611850565b50505050565b3373ffffffffffffffffffffffffffffffffffffffff16610da9836107fa565b73ffffffffffffffffffffffffffffffffffffffff1614610dff576040517f08c379a0000000000000000000000000000000000000000000000000000000008152600401610df690612ca8565b60405180910390fd5b600060086000848152602001908152602001600020905060008160020160008473ffffffffffffffffffffffffffffffffffffffff1673ffffffffffffffffffffffffffffffffffffffff16815260200190815260200160002060006101000a81548160ff021916908315150217905550505050565b6060610e80826111a2565b506000610e8b611a01565b90506000815111610eab5760405180602001604052806000815250610ed6565b80610eb584611a18565b604051602001610ec6929190612d33565b6040516020818303038152906040525b915050919050565b6000600560008473ffffffffffffffffffffffffffffffffffffffff1673ffffffffffffffffffffffffffffffffffffffff16815260200190815260200160002060008373ffffffffffffffffffffffffffffffffffffffff1673ffffffffffffffffffffffffffffffffffffffff16815260200190815260200160002060009054906101000a900460ff16905092915050565b60608060006008600085815260200190815260200160002090508060000181600101818054610fa0906128ff565b80601f0160208091040260200160405190810160405280929190818152602001828054610fcc906128ff565b80156110195780601f10610fee57610100808354040283529160200191611019565b820191906000526020600020905b815481529060010190602001808311610ffc57829003601f168201915b50505050509150808054806020026020016040519081016040528092919081815260200182805480156110a157602002820191906000526020600020905b8160009054906101000a900473ffffffffffffffffffffffffffffffffffffffff1673ffffffffffffffffffffffffffffffffffffffff1681526020019060010190808311611057575b505050505090509250925050915091565b6110ba611281565b600073ffffffffffffffffffffffffffffffffffffffff168173ffffffffffffffffffffffffffffffffffffffff160361112c5760006040517f1e4fbdf700000000000000000000000000000000000000000000000000000000815260040161112391906121e5565b60405180910390fd5b6111358161161b565b50565b60007f01ffc9a7000000000000000000000000000000000000000000000000000000007bffffffffffffffffffffffffffffffffffffffffffffffffffffffff1916827bffffffffffffffffffffffffffffffffffffffffffffffffffffffff1916149050919050565b6000806111ae83611ae6565b9050600073ffffffffffffffffffffffffffffffffffffffff168173ffffffffffffffffffffffffffffffffffffffff160361122157826040517f7e27328900000000000000000000000000000000000000000000000000000000815260040161121891906125f0565b60405180910390fd5b80915050919050565b60006004600083815260200190815260200160002060009054906101000a900473ffffffffffffffffffffffffffffffffffffffff169050919050565b600033905090565b61127c8383836001611b23565b505050565b611289611267565b73ffffffffffffffffffffffffffffffffffffffff166112a7610c92565b73ffffffffffffffffffffffffffffffffffffffff1614611306576112ca611267565b6040517f118cdaa70000000000000000000000000000000000000000000000000000000081526004016112fd91906121e5565b60405180910390fd5b565b600073ffffffffffffffffffffffffffffffffffffffff168273ffffffffffffffffffffffffffffffffffffffff160361137a5760006040517f64a0ae9200000000000000000000000000000000000000000000000000000000815260040161137191906121e5565b60405180910390fd5b600061138883836000611401565b9050600073ffffffffffffffffffffffffffffffffffffffff168173ffffffffffffffffffffffffffffffffffffffff16146113fc5760006040517f73c6ac6e0000000000000000000000000000000000000000000000000000000081526004016113f391906121e5565b60405180910390fd5b505050565b60008061140d84611ae6565b9050600073ffffffffffffffffffffffffffffffffffffffff168373ffffffffffffffffffffffffffffffffffffffff161461144f5761144e818486611ce8565b5b600073ffffffffffffffffffffffffffffffffffffffff168173ffffffffffffffffffffffffffffffffffffffff16146114e057611491600085600080611b23565b6001600360008373ffffffffffffffffffffffffffffffffffffffff1673ffffffffffffffffffffffffffffffffffffffff168152602001908152602001600020600082825403925050819055505b600073ffffffffffffffffffffffffffffffffffffffff168573ffffffffffffffffffffffffffffffffffffffff1614611563576001600360008773ffffffffffffffffffffffffffffffffffffffff1673ffffffffffffffffffffffffffffffffffffffff168152602001908152602001600020600082825401925050819055505b846002600086815260200190815260200160002060006101000a81548173ffffffffffffffffffffffffffffffffffffffff021916908373ffffffffffffffffffffffffffffffffffffffff160217905550838573ffffffffffffffffffffffffffffffffffffffff168273ffffffffffffffffffffffffffffffffffffffff167fddf252ad1be2c89b69c2b068fc378daa952ba7f163c4a11628f55a4df523b3ef60405160405180910390a4809150509392505050565b6000600660009054906101000a900473ffffffffffffffffffffffffffffffffffffffff16905081600660006101000a81548173ffffffffffffffffffffffffffffffffffffffff021916908373ffffffffffffffffffffffffffffffffffffffff1602179055508173ffffffffffffffffffffffffffffffffffffffff168173ffffffffffffffffffffffffffffffffffffffff167f8be0079c531659141344cd1fd0a4f28419497f9722a3daafe3b4186f6b6457e060405160405180910390a35050565b600073ffffffffffffffffffffffffffffffffffffffff168273ffffffffffffffffffffffffffffffffffffffff160361175257816040517f5b08ba1800000000000000000000000000000000000000000000000000000000815260040161174991906121e5565b60405180910390fd5b80600560008573ffffffffffffffffffffffffffffffffffffffff1673ffffffffffffffffffffffffffffffffffffffff16815260200190815260200160002060008473ffffffffffffffffffffffffffffffffffffffff1673ffffffffffffffffffffffffffffffffffffffff16815260200190815260200160002060006101000a81548160ff0219169083151502179055508173ffffffffffffffffffffffffffffffffffffffff168373ffffffffffffffffffffffffffffffffffffffff167f17307eab39ab6107e8899845ad3d59bd9653f200f220920489ca2b5937696c31836040516118439190612074565b60405180910390a3505050565b60008373ffffffffffffffffffffffffffffffffffffffff163b11156119fa578273ffffffffffffffffffffffffffffffffffffffff1663150b7a02868685856040518563ffffffff1660e01b81526004016118af9493929190612dac565b6020604051808303816000875af19250505080156118eb57506040513d601f19601f820116820180604052508101906118e89190612e0d565b60015b61196f573d806000811461191b576040519150601f19603f3d011682016040523d82523d6000602084013e611920565b606091505b50600081510361196757836040517f64a0ae9200000000000000000000000000000000000000000000000000000000815260040161195e91906121e5565b60405180910390fd5b805181602001fd5b63150b7a0260e01b7bffffffffffffffffffffffffffffffffffffffffffffffffffffffff1916817bffffffffffffffffffffffffffffffffffffffffffffffffffffffff1916146119f857836040517f64a0ae920000000000000000000000000000000000000000000000000000000081526004016119ef91906121e5565b60405180910390fd5b505b5050505050565b606060405180602001604052806000815250905090565b606060006001611a2784611dac565b01905060008167ffffffffffffffff811115611a4657611a456122b6565b5b6040519080825280601f01601f191660200182016040528015611a785781602001600182028036833780820191505090505b509050600082602001820190505b600115611adb578080600190039150507f3031323334353637383961626364656600000000000000000000000000000000600a86061a8153600a8581611acf57611ace612e3a565b5b04945060008503611a86575b819350505050919050565b60006002600083815260200190815260200160002060009054906101000a900473ffffffffffffffffffffffffffffffffffffffff169050919050565b8080611b5c5750600073ffffffffffffffffffffffffffffffffffffffff168273ffffffffffffffffffffffffffffffffffffffff1614155b15611c90576000611b6c846111a2565b9050600073ffffffffffffffffffffffffffffffffffffffff168373ffffffffffffffffffffffffffffffffffffffff1614158015611bd757508273ffffffffffffffffffffffffffffffffffffffff168173ffffffffffffffffffffffffffffffffffffffff1614155b8015611bea5750611be88184610ede565b155b15611c2c57826040517fa9fbf51f000000000000000000000000000000000000000000000000000000008152600401611c2391906121e5565b60405180910390fd5b8115611c8e57838573ffffffffffffffffffffffffffffffffffffffff168273ffffffffffffffffffffffffffffffffffffffff167f8c5be1e5ebec7d5bd14f71427d1e84f3dd0314c0f7b2291e5b200ac8c7c3b92560405160405180910390a45b505b836004600085815260200190815260200160002060006101000a81548173ffffffffffffffffffffffffffffffffffffffff021916908373ffffffffffffffffffffffffffffffffffffffff16021790555050505050565b611cf3838383611eff565b611da757600073ffffffffffffffffffffffffffffffffffffffff168373ffffffffffffffffffffffffffffffffffffffff1603611d6857806040517f7e273289000000000000000000000000000000000000000000000000000000008152600401611d5f91906125f0565b60405180910390fd5b81816040517f177e802f000000000000000000000000000000000000000000000000000000008152600401611d9e929190612e69565b60405180910390fd5b505050565b600080600090507a184f03e93ff9f4daa797ed6e38ed64bf6a1f0100000000000000008310611e0a577a184f03e93ff9f4daa797ed6e38ed64bf6a1f0100000000000000008381611e0057611dff612e3a565b5b0492506040810190505b6d04ee2d6d415b85acef81000000008310611e47576d04ee2d6d415b85acef81000000008381611e3d57611e3c612e3a565b5b0492506020810190505b662386f26fc100008310611e7657662386f26fc100008381611e6c57611e6b612e3a565b5b0492506010810190505b6305f5e1008310611e9f576305f5e1008381611e9557611e94612e3a565b5b0492506008810190505b6127108310611ec4576127108381611eba57611eb9612e3a565b5b0492506004810190505b60648310611ee75760648381611edd57611edc612e3a565b5b0492506002810190505b600a8310611ef6576001810190505b80915050919050565b60008073ffffffffffffffffffffffffffffffffffffffff168373ffffffffffffffffffffffffffffffffffffffff1614158015611fb757508273ffffffffffffffffffffffffffffffffffffffff168473ffffffffffffffffffffffffffffffffffffffff161480611f785750611f778484610ede565b5b80611fb657508273ffffffffffffffffffffffffffffffffffffffff16611f9e8361122a565b73ffffffffffffffffffffffffffffffffffffffff16145b5b90509392505050565b6000604051905090565b600080fd5b600080fd5b60007fffffffff0000000000000000000000000000000000000000000000000000000082169050919050565b61200981611fd4565b811461201457600080fd5b50565b60008135905061202681612000565b92915050565b60006020828403121561204257612041611fca565b5b600061205084828501612017565b91505092915050565b60008115159050919050565b61206e81612059565b82525050565b60006020820190506120896000830184612065565b92915050565b600081519050919050565b600082825260208201905092915050565b60005b838110156120c95780820151818401526020810190506120ae565b60008484015250505050565b6000601f19601f8301169050919050565b60006120f18261208f565b6120fb818561209a565b935061210b8185602086016120ab565b612114816120d5565b840191505092915050565b6000602082019050818103600083015261213981846120e6565b905092915050565b6000819050919050565b61215481612141565b811461215f57600080fd5b50565b6000813590506121718161214b565b92915050565b60006020828403121561218d5761218c611fca565b5b600061219b84828501612162565b91505092915050565b600073ffffffffffffffffffffffffffffffffffffffff82169050919050565b60006121cf826121a4565b9050919050565b6121df816121c4565b82525050565b60006020820190506121fa60008301846121d6565b92915050565b612209816121c4565b811461221457600080fd5b50565b60008135905061222681612200565b92915050565b6000806040838503121561224357612242611fca565b5b600061225185828601612217565b925050602061226285828601612162565b9150509250929050565b6000806040838503121561228357612282611fca565b5b600061229185828601612162565b92505060206122a285828601612217565b9150509250929050565b600080fd5b600080fd5b7f4e487b7100000000000000000000000000000000000000000000000000000000600052604160045260246000fd5b6122ee826120d5565b810181811067ffffffffffffffff8211171561230d5761230c6122b6565b5b80604052505050565b6000612320611fc0565b905061232c82826122e5565b919050565b600067ffffffffffffffff82111561234c5761234b6122b6565b5b612355826120d5565b9050602081019050919050565b82818337600083830152505050565b600061238461237f84612331565b612316565b9050828152602081018484840111156123a05761239f6122b1565b5b6123ab848285612362565b509392505050565b600082601f8301126123c8576123c76122ac565b5b81356123d8848260208601612371565b91505092915050565b600080604083850312156123f8576123f7611fca565b5b600083013567ffffffffffffffff81111561241657612415611fcf565b5b612422858286016123b3565b925050602061243385828601612217565b9150509250929050565b60008060006060848603121561245657612455611fca565b5b600061246486828701612217565b935050602061247586828701612217565b925050604061248686828701612162565b9150509250925092565b600067ffffffffffffffff8211156124ab576124aa6122b6565b5b602082029050602081019050919050565b600080fd5b60006124d46124cf84612490565b612316565b905080838252602082019050602084028301858111156124f7576124f66124bc565b5b835b81811015612520578061250c8882612217565b8452602084019350506020810190506124f9565b5050509392505050565b600082601f83011261253f5761253e6122ac565b5b813561254f8482602086016124c1565b91505092915050565b6000806040838503121561256f5761256e611fca565b5b600061257d85828601612162565b925050602083013567ffffffffffffffff81111561259e5761259d611fcf565b5b6125aa8582860161252a565b9150509250929050565b6000602082840312156125ca576125c9611fca565b5b60006125d884828501612217565b91505092915050565b6125ea81612141565b82525050565b600060208201905061260560008301846125e1565b92915050565b61261481612059565b811461261f57600080fd5b50565b6000813590506126318161260b565b92915050565b6000806040838503121561264e5761264d611fca565b5b600061265c85828601612217565b925050602061266d85828601612622565b9150509250929050565b600067ffffffffffffffff821115612692576126916122b6565b5b61269b826120d5565b9050602081019050919050565b60006126bb6126b684612677565b612316565b9050828152602081018484840111156126d7576126d66122b1565b5b6126e2848285612362565b509392505050565b600082601f8301126126ff576126fe6122ac565b5b813561270f8482602086016126a8565b91505092915050565b6000806000806080858703121561273257612731611fca565b5b600061274087828801612217565b945050602061275187828801612217565b935050604061276287828801612162565b925050606085013567ffffffffffffffff81111561278357612782611fcf565b5b61278f878288016126ea565b91505092959194509250565b600080604083850312156127b2576127b1611fca565b5b60006127c085828601612217565b92505060206127d185828601612217565b9150509250929050565b600081519050919050565b600082825260208201905092915050565b6000819050602082019050919050565b612810816121c4565b82525050565b60006128228383612807565b60208301905092915050565b6000602082019050919050565b6000612846826127db565b61285081856127e6565b935061285b836127f7565b8060005b8381101561288c5781516128738882612816565b975061287e8361282e565b92505060018101905061285f565b5085935050505092915050565b600060408201905081810360008301526128b381856120e6565b905081810360208301526128c7818461283b565b90509392505050565b7f4e487b7100000000000000000000000000000000000000000000000000000000600052602260045260246000fd5b6000600282049050600182168061291757607f821691505b60208210810361292a576129296128d0565b5b50919050565b60008190508160005260206000209050919050565b60006020601f8301049050919050565b600082821b905092915050565b6000600883026129927fffffffffffffffffffffffffffffffffffffffffffffffffffffffffffffffff82612955565b61299c8683612955565b95508019841693508086168417925050509392505050565b6000819050919050565b60006129d96129d46129cf84612141565b6129b4565b612141565b9050919050565b6000819050919050565b6129f3836129be565b612a076129ff826129e0565b848454612962565b825550505050565b600090565b612a1c612a0f565b612a278184846129ea565b505050565b5b81811015612a4b57612a40600082612a14565b600181019050612a2d565b5050565b601f821115612a9057612a6181612930565b612a6a84612945565b81016020851015612a79578190505b612a8d612a8585612945565b830182612a2c565b50505b505050565b600082821c905092915050565b6000612ab360001984600802612a95565b1980831691505092915050565b6000612acc8383612aa2565b9150826002028217905092915050565b612ae58261208f565b67ffffffffffffffff811115612afe57612afd6122b6565b5b612b0882546128ff565b612b13828285612a4f565b600060209050601f831160018114612b465760008415612b34578287015190505b612b3e8582612ac0565b865550612ba6565b601f198416612b5486612930565b60005b82811015612b7c57848901518255600182019150602085019450602081019050612b57565b86831015612b995784890151612b95601f891682612aa2565b8355505b6001600288020188555050505b505050505050565b7f4e487b7100000000000000000000000000000000000000000000000000000000600052601160045260246000fd5b6000612be882612141565b91507fffffffffffffffffffffffffffffffffffffffffffffffffffffffffffffffff8203612c1a57612c19612bae565b5b600182019050919050565b6000606082019050612c3a60008301866121d6565b612c4760208301856125e1565b612c5460408301846121d6565b949350505050565b7f4e6f7420746865206f776e657200000000000000000000000000000000000000600082015250565b6000612c92600d8361209a565b9150612c9d82612c5c565b602082019050919050565b60006020820190508181036000830152612cc181612c85565b9050919050565b7f4e487b7100000000000000000000000000000000000000000000000000000000600052603260045260246000fd5b600081905092915050565b6000612d0d8261208f565b612d178185612cf7565b9350612d278185602086016120ab565b80840191505092915050565b6000612d3f8285612d02565b9150612d4b8284612d02565b91508190509392505050565b600081519050919050565b600082825260208201905092915050565b6000612d7e82612d57565b612d888185612d62565b9350612d988185602086016120ab565b612da1816120d5565b840191505092915050565b6000608082019050612dc160008301876121d6565b612dce60208301866121d6565b612ddb60408301856125e1565b8181036060830152612ded8184612d73565b905095945050505050565b600081519050612e0781612000565b92915050565b600060208284031215612e2357612e22611fca565b5b6000612e3184828501612df8565b91505092915050565b7f4e487b7100000000000000000000000000000000000000000000000000000000600052601260045260246000fd5b6000604082019050612e7e60008301856121d6565b612e8b60208301846125e1565b939250505056fea264697066735822122065e489e7313257aafb38b70920aea0b6a1779cb3a9a2d29d2a19718162284b8c64736f6c634300081c0033",
  "linkReferences": {},
  "deployedLinkReferences": {}
}