{
  "_format": "hh-sol-artifact-1",
  "contractName": "AssetManager",
  "sourceName": "contracts/AssetManager.sol",
  "abi": [
    {
      "inputs": [],
      "stateMutability": "nonpayable",
      "type": "constructor"
    },
    {
      "inputs": [
        {
          "internalType": "address",
          "name": "sender",
          "type": "address"
        },
        {
          "internalType": "uint256",
          "name": "tokenId",
          "type": "uint256"
        },
        {
          "internalType": "address",
          "name": "owner",
          "type": "address"
        }
      ],
      "name": "ERC721IncorrectOwner",
      "type": "error"
    },
    {
      "inputs": [
        {
          "internalType": "address",
          "name": "operator",
          "type": "address"
        },
        {
          "internalType": "uint256",
          "name": "tokenId",
          "type": "uint256"
        }
      ],
      "name": "ERC721InsufficientApproval",
      "type": "error"
    },
    {
      "inputs": [
        {
          "internalType": "address",
          "name": "approver",
          "type": "address"
        }
      ],
      "name": "ERC721InvalidApprover",
      "type": "error"
    },
    {
      "inputs": [
        {
          "internalType": "address",
          "name": "operator",
          "type": "address"
        }
      ],
      "name": "ERC721InvalidOperator",
      "type": "error"
    },
    {
      "inputs": [
        {
          "internalType": "address",
          "name": "owner",
          "type": "address"
        }
      ],
      "name": "ERC721InvalidOwner",
      "type": "error"
    },
    {
      "inputs": [
        {
          "internalType": "address",
          "name": "receiver",
          "type": "address"
        }
      ],
      "name": "ERC721InvalidReceiver",
      "type": "error"
    },
    {
      "inputs": [
        {
          "internalType": "address",
          "name": "sender",
          "type": "address"
        }
      ],
      "name": "ERC721InvalidSender",
      "type": "error"
    },
    {
      "inputs": [
        {
          "internalType": "uint256",
          "name": "tokenId",
          "type": "uint256"
        }
      ],
      "name": "ERC721NonexistentToken",
      "type": "error"
    },
    {
      "inputs": [
        {
          "internalType": "address",
          "name": "owner",
          "type": "address"
        }
      ],
      "name": "OwnableInvalidOwner",
      "type": "error"
    },
    {
      "inputs": [
        {
          "internalType": "address",
          "name": "account",
          "type": "address"
        }
      ],
      "name": "OwnableUnauthorizedAccount",
      "type": "error"
    },
    {
      "anonymous": false,
      "inputs": [
        {
          "indexed": true,
          "internalType": "address",
          "name": "owner",
          "type": "address"
        },
        {
          "indexed": true,
          "internalType": "address",
          "name": "approved",
          "type": "address"
        },
        {
          "indexed": true,
          "internalType": "uint256",
          "name": "tokenId",
          "type": "uint256"
        }
      ],
      "name": "Approval",
      "type": "event"
    },
    {
      "anonymous": false,
      "inputs": [
        {
          "indexed": true,
          "internalType": "address",
          "name": "owner",
          "type": "address"
        },
        {
          "indexed": true,
          "internalType": "address",
          "name": "operator",
          "type": "address"
        },
        {
          "indexed": false,
          "internalType": "bool",
          "name": "approved",
          "type": "bool"
        }
      ],
      "name": "ApprovalForAll",
      "type": "event"
    },
    {
      "anonymous": false,
      "inputs": [
        {
          "indexed": true,
          "internalType": "address",
          "name": "previousOwner",
          "type": "address"
        },
        {
          "indexed": true,
          "internalType": "address",
          "name": "newOwner",
          "type": "address"
        }
      ],
      "name": "OwnershipTransferred",
      "type": "event"
    },
    {
      "anonymous": false,
      "inputs": [
        {
          "indexed": true,
          "internalType": "address",
          "name": "from",
          "type": "address"
        },
        {
          "indexed": true,
          "internalType": "address",
          "name": "to",
          "type": "address"
        },
        {
          "indexed": true,
          "internalType": "uint256",
          "name": "tokenId",
          "type": "uint256"
        }
      ],
      "name": "Transfer",
      "type": "event"
    },
    {
      "inputs": [
        {
          "internalType": "address",
          "name": "to",
          "type": "address"
        },
        {
          "internalType": "uint256",
          "name": "tokenId",
          "type": "uint256"
        }
      ],
      "name": "approve",
      "outputs": [],
      "stateMutability": "nonpayable",
      "type": "function"
    },
    {
      "inputs": [
        {
          "internalType": "address",
          "name": "owner",
          "type": "address"
        }
      ],
      "name": "balanceOf",
      "outputs": [
        {
          "internalType": "uint256",
          "name": "",
          "type": "uint256"
        }
      ],
      "stateMutability": "view",
      "type": "function"
    },
    {
      "inputs": [
        {
          "internalType": "uint256",
          "name": "tokenId",
          "type": "uint256"
        }
      ],
      "name": "getApproved",
      "outputs": [
        {
          "internalType": "address",
          "name": "",
          "type": "address"
        }
      ],
      "stateMutability": "view",
      "type": "function"
    },
    {
      "inputs": [
        {
          "internalType": "uint256",
          "name": "tokenId",
          "type": "uint256"
        }
      ],
      "name": "getAsset",
      "outputs": [
        {
          "internalType": "string",
          "name": "",
          "type": "string"
        },
        {
          "internalType": "address[]",
          "name": "",
          "type": "address[]"
        }
      ],
      "stateMutability": "view",
      "type": "function"
    },
    {
      "inputs": [
        {
          "internalType": "uint256",
          "name": "tokenId",
          "type": "uint256"
        },
        {
          "internalType": "address",
          "name": "user",
          "type": "address"
        }
      ],
      "name": "grantUsageRight",
      "outputs": [],
      "stateMutability": "nonpayable",
      "type": "function"
    },
    {
      "inputs": [
        {
          "internalType": "uint256",
          "name": "tokenId",
          "type": "uint256"
        },
        {
          "internalType": "address[]",
          "name": "users",
          "type": "address[]"
        }
      ],
      "name": "grantUsageRights",
      "outputs": [],
      "stateMutability": "nonpayable",
      "type": "function"
    },
    {
      "inputs": [
        {
          "internalType": "uint256",
          "name": "tokenId",
          "type": "uint256"
        },
        {
          "internalType": "address",
          "name": "user",
          "type": "address"
        }
      ],
      "name": "hasUsage",
      "outputs": [
        {
          "internalType": "bool",
          "name": "",
          "type": "bool"
        }
      ],
      "stateMutability": "view",
      "type": "function"
    },
    {
      "inputs": [
        {
          "internalType": "address",
          "name": "owner",
          "type": "address"
        },
        {
          "internalType": "address",
          "name": "operator",
          "type": "address"
        }
      ],
      "name": "isApprovedForAll",
      "outputs": [
        {
          "internalType": "bool",
          "name": "",
          "type": "bool"
        }
      ],
      "stateMutability": "view",
      "type": "function"
    },
    {
      "inputs": [
        {
          "internalType": "string",
          "name": "s3Url",
          "type": "string"
        },
        {
          "internalType": "address",
          "name": "to",
          "type": "address"
        }
      ],
      "name": "mint",
      "outputs": [
        {
          "internalType": "uint256",
          "name": "tokenId",
          "type": "uint256"
        }
      ],
      "stateMutability": "nonpayable",
      "type": "function"
    },
    {
      "inputs": [],
      "name": "name",
      "outputs": [
        {
          "internalType": "string",
          "name": "",
          "type": "string"
        }
      ],
      "stateMutability": "view",
      "type": "function"
    },
    {
      "inputs": [],
      "name": "nextTokenId",
      "outputs": [
        {
          "internalType": "uint256",
          "name": "",
          "type": "uint256"
        }
      ],
      "stateMutability": "view",
      "type": "function"
    },
    {
      "inputs": [],
      "name": "owner",
      "outputs": [
        {
          "internalType": "address",
          "name": "",
          "type": "address"
        }
      ],
      "stateMutability": "view",
      "type": "function"
    },
    {
      "inputs": [
        {
          "internalType": "uint256",
          "name": "tokenId",
          "type": "uint256"
        }
      ],
      "name": "ownerOf",
      "outputs": [
        {
          "internalType": "address",
          "name": "",
          "type": "address"
        }
      ],
      "stateMutability": "view",
      "type": "function"
    },
    {
      "inputs": [],
      "name": "renounceOwnership",
      "outputs": [],
      "stateMutability": "nonpayable",
      "type": "function"
    },
    {
      "inputs": [
        {
          "internalType": "uint256",
          "name": "tokenId",
          "type": "uint256"
        },
        {
          "internalType": "address",
          "name": "user",
          "type": "address"
        }
      ],
      "name": "revokeUsageRight",
      "outputs": [],
      "stateMutability": "nonpayable",
      "type": "function"
    },
    {
      "inputs": [
        {
          "internalType": "address",
          "name": "from",
          "type": "address"
        },
        {
          "internalType": "address",
          "name": "to",
          "type": "address"
        },
        {
          "internalType": "uint256",
          "name": "tokenId",
          "type": "uint256"
        }
      ],
      "name": "safeTransferFrom",
      "outputs": [],
      "stateMutability": "nonpayable",
      "type": "function"
    },
    {
      "inputs": [
        {
          "internalType": "address",
          "name": "from",
          "type": "address"
        },
        {
          "internalType": "address",
          "name": "to",
          "type": "address"
        },
        {
          "internalType": "uint256",
          "name": "tokenId",
          "type": "uint256"
        },
        {
          "internalType": "bytes",
          "name": "data",
          "type": "bytes"
        }
      ],
      "name": "safeTransferFrom",
      "outputs": [],
      "stateMutability": "nonpayable",
      "type": "function"
    },
    {
      "inputs": [
        {
          "internalType": "address",
          "name": "operator",
          "type": "address"
        },
        {
          "internalType": "bool",
          "name": "approved",
          "type": "bool"
        }
      ],
      "name": "setApprovalForAll",
      "outputs": [],
      "stateMutability": "nonpayable",
      "type": "function"
    },
    {
      "inputs": [
        {
          "internalType": "bytes4",
          "name": "interfaceId",
          "type": "bytes4"
        }
      ],
      "name": "supportsInterface",
      "outputs": [
        {
          "internalType": "bool",
          "name": "",
          "type": "bool"
        }
      ],
      "stateMutability": "view",
      "type": "function"
    },
    {
      "inputs": [],
      "name": "symbol",
      "outputs": [
        {
          "internalType": "string",
          "name": "",
          "type": "string"
        }
      ],
      "stateMutability": "view",
      "type": "function"
    },
    {
      "inputs": [
        {
          "internalType": "uint256",
          "name": "tokenId",
          "type": "uint256"
        }
      ],
      "name": "tokenURI",
      "outputs": [
        {
          "internalType": "string",
          "name": "",
          "type": "string"
        }
      ],
      "stateMutability": "view",
      "type": "function"
    },
    {
      "inputs": [
        {
          "internalType": "address",
          "name": "from",
          "type": "address"
        },
        {
          "internalType": "address",
          "name": "to",
          "type": "address"
        },
        {
          "internalType": "uint256",
          "name": "tokenId",
          "type": "uint256"
        }
      ],
      "name": "transferFrom",
      "outputs": [],
      "stateMutability": "nonpayable",
      "type": "function"
    },
    {
      "inputs": [
        {
          "internalType": "address",
          "name": "newOwner",
          "type": "address"
        }
      ],
      "name": "transferOwnership",
      "outputs": [],
      "stateMutability": "nonpayable",
      "type": "function"
    }
  ],
  "bytecode": "0x608060405234801561001057600080fd5b50336040518060400160405280600881526020017f474c4241737365740000000000000000000000000000000000000000000000008152506040518060400160405280600481526020017f474c424100000000000000000000000000000000000000000000000000000000815250816000908161008d919061043d565b50806001908161009d919061043d565b505050600073ffffffffffffffffffffffffffffffffffffffff168173ffffffffffffffffffffffffffffffffffffffff16036101125760006040517f1e4fbdf70000000000000000000000000000000000000000000000000000000081526004016101099190610550565b60405180910390fd5b6101218161012760201b60201c565b5061056b565b6000600660009054906101000a900473ffffffffffffffffffffffffffffffffffffffff16905081600660006101000a81548173ffffffffffffffffffffffffffffffffffffffff021916908373ffffffffffffffffffffffffffffffffffffffff1602179055508173ffffffffffffffffffffffffffffffffffffffff168173ffffffffffffffffffffffffffffffffffffffff167f8be0079c531659141344cd1fd0a4f28419497f9722a3daafe3b4186f6b6457e060405160405180910390a35050565b600081519050919050565b7f4e487b7100000000000000000000000000000000000000000000000000000000600052604160045260246000fd5b7f4e487b7100000000000000000000000000000000000000000000000000000000600052602260045260246000fd5b6000600282049050600182168061026e57607f821691505b60208210810361028157610280610227565b5b50919050565b60008190508160005260206000209050919050565b60006020601f8301049050919050565b600082821b905092915050565b6000600883026102e97fffffffffffffffffffffffffffffffffffffffffffffffffffffffffffffffff826102ac565b6102f386836102ac565b95508019841693508086168417925050509392505050565b6000819050919050565b6000819050919050565b600061033a6103356103308461030b565b610315565b61030b565b9050919050565b6000819050919050565b6103548361031f565b61036861036082610341565b8484546102b9565b825550505050565b600090565b61037d610370565b61038881848461034b565b505050565b5b818110156103ac576103a1600082610375565b60018101905061038e565b5050565b601f8211156103f1576103c281610287565b6103cb8461029c565b810160208510156103da578190505b6103ee6103e68561029c565b83018261038d565b50505b505050565b600082821c905092915050565b6000610414600019846008026103f6565b1980831691505092915050565b600061042d8383610403565b9150826002028217905092915050565b610446826101ed565b67ffffffffffffffff81111561045f5761045e6101f8565b5b6104698254610256565b6104748282856103b0565b600060209050601f8311600181146104a75760008415610495578287015190505b61049f8582610421565b865550610507565b601f1984166104b586610287565b60005b828110156104dd578489015182556001820191506020850194506020810190506104b8565b868310156104fa57848901516104f6601f891682610403565b8355505b6001600288020188555050505b505050505050565b600073ffffffffffffffffffffffffffffffffffffffff82169050919050565b600061053a8261050f565b9050919050565b61054a8161052f565b82525050565b60006020820190506105656000830184610541565b92915050565b612edd8061057a6000396000f3fe608060405234801561001057600080fd5b506004361061014d5760003560e01c8063715018a6116100c3578063b88d4fde1161007c578063b88d4fde1461039c578063ba0c5bfd146103b8578063c87b56dd146103d4578063e985e9c514610404578063eac8f5b814610434578063f2fde38b146104655761014d565b8063715018a61461030057806375794a3c1461030a5780638752d201146103285780638da5cb5b1461034457806395d89b4114610362578063a22cb465146103805761014d565b80631c351a9d116101155780631c351a9d1461021c57806323b872dd1461024c57806342842e0e146102685780636352211e14610284578063701e8279146102b457806370a08231146102d05761014d565b806301ffc9a71461015257806306fdde0314610182578063081812fc146101a0578063095ea7b3146101d05780631a285673146101ec575b600080fd5b61016c60048036038101906101679190612041565b610481565b6040516101799190612089565b60405180910390f35b61018a610563565b6040516101979190612134565b60405180910390f35b6101ba60048036038101906101b5919061218c565b6105f5565b6040516101c791906121fa565b60405180910390f35b6101ea60048036038101906101e59190612241565b610611565b005b61020660048036038101906102019190612281565b610627565b6040516102139190612089565b60405180910390f35b610236600480360381019061023191906123f6565b610692565b6040516102439190612461565b60405180910390f35b6102666004803603810190610261919061247c565b6106ed565b005b610282600480360381019061027d919061247c565b6107ef565b005b61029e6004803603810190610299919061218c565b61080f565b6040516102ab91906121fa565b60405180910390f35b6102ce60048036038101906102c99190612597565b610821565b005b6102ea60048036038101906102e591906125f3565b610a2e565b6040516102f79190612461565b60405180910390f35b610308610ae8565b005b610312610afc565b60405161031f9190612461565b60405180910390f35b610342600480360381019061033d9190612281565b610b02565b005b61034c610ca7565b60405161035991906121fa565b60405180910390f35b61036a610cd1565b6040516103779190612134565b60405180910390f35b61039a6004803603810190610395919061264c565b610d63565b005b6103b660048036038101906103b1919061272d565b610d79565b005b6103d260048036038101906103cd9190612281565b610d9e565b005b6103ee60048036038101906103e9919061218c565b610e8a565b6040516103fb9190612134565b60405180910390f35b61041e600480360381019061041991906127b0565b610ef3565b60405161042b9190612089565b60405180910390f35b61044e6004803603810190610449919061218c565b610f87565b60405161045c9291906128ae565b60405180910390f35b61047f600480360381019061047a91906125f3565b6110c7565b005b60007f80ac58cd000000000000000000000000000000000000000000000000000000007bffffffffffffffffffffffffffffffffffffffffffffffffffffffff1916827bffffffffffffffffffffffffffffffffffffffffffffffffffffffff1916148061054c57507f5b5e139f000000000000000000000000000000000000000000000000000000007bffffffffffffffffffffffffffffffffffffffffffffffffffffffff1916827bffffffffffffffffffffffffffffffffffffffffffffffffffffffff1916145b8061055c575061055b8261114d565b5b9050919050565b60606000805461057290612914565b80601f016020809104026020016040519081016040528092919081815260200182805461059e90612914565b80156105eb5780601f106105c0576101008083540402835291602001916105eb565b820191906000526020600020905b8154815290600101906020018083116105ce57829003601f168201915b5050505050905090565b6000610600826111b7565b5061060a8261123f565b9050919050565b610623828261061e61127c565b611284565b5050565b60006008600084815260200190815260200160002060020160008373ffffffffffffffffffffffffffffffffffffffff1673ffffffffffffffffffffffffffffffffffffffff16815260200190815260200160002060009054906101000a900460ff16905092915050565b600061069c611296565b60075490506106ab828261131d565b826008600083815260200190815260200160002060000190816106ce9190612af1565b50600760008154809291906106e290612bf2565b919050555092915050565b600073ffffffffffffffffffffffffffffffffffffffff168273ffffffffffffffffffffffffffffffffffffffff160361075f5760006040517f64a0ae9200000000000000000000000000000000000000000000000000000000815260040161075691906121fa565b60405180910390fd5b6000610773838361076e61127c565b611416565b90508373ffffffffffffffffffffffffffffffffffffffff168173ffffffffffffffffffffffffffffffffffffffff16146107e9578382826040517f64283d7b0000000000000000000000000000000000000000000000000000000081526004016107e093929190612c3a565b60405180910390fd5b50505050565b61080a83838360405180602001604052806000815250610d79565b505050565b600061081a826111b7565b9050919050565b3373ffffffffffffffffffffffffffffffffffffffff166108418361080f565b73ffffffffffffffffffffffffffffffffffffffff1614610897576040517f08c379a000000000000000000000000000000000000000000000000000000000815260040161088e90612cbd565b60405180910390fd5b600060086000848152602001908152602001600020905060005b8251811015610a28578160020160008483815181106108d3576108d2612cdd565b5b602002602001015173ffffffffffffffffffffffffffffffffffffffff1673ffffffffffffffffffffffffffffffffffffffff16815260200190815260200160002060009054906101000a900460ff16610a1b578160010183828151811061093e5761093d612cdd565b5b60200260200101519080600181540180825580915050600190039060005260206000200160009091909190916101000a81548173ffffffffffffffffffffffffffffffffffffffff021916908373ffffffffffffffffffffffffffffffffffffffff16021790555060018260020160008584815181106109c1576109c0612cdd565b5b602002602001015173ffffffffffffffffffffffffffffffffffffffff1673ffffffffffffffffffffffffffffffffffffffff16815260200190815260200160002060006101000a81548160ff0219169083151502179055505b80806001019150506108b1565b50505050565b60008073ffffffffffffffffffffffffffffffffffffffff168273ffffffffffffffffffffffffffffffffffffffff1603610aa15760006040517f89c62b64000000000000000000000000000000000000000000000000000000008152600401610a9891906121fa565b60405180910390fd5b600360008373ffffffffffffffffffffffffffffffffffffffff1673ffffffffffffffffffffffffffffffffffffffff168152602001908152602001600020549050919050565b610af0611296565b610afa6000611630565b565b60075481565b3373ffffffffffffffffffffffffffffffffffffffff16610b228361080f565b73ffffffffffffffffffffffffffffffffffffffff1614610b78576040517f08c379a0000000000000000000000000000000000000000000000000000000008152600401610b6f90612cbd565b60405180910390fd5b60006008600084815260200190815260200160002090508060020160008373ffffffffffffffffffffffffffffffffffffffff1673ffffffffffffffffffffffffffffffffffffffff16815260200190815260200160002060009054906101000a900460ff16610ca25780600101829080600181540180825580915050600190039060005260206000200160009091909190916101000a81548173ffffffffffffffffffffffffffffffffffffffff021916908373ffffffffffffffffffffffffffffffffffffffff16021790555060018160020160008473ffffffffffffffffffffffffffffffffffffffff1673ffffffffffffffffffffffffffffffffffffffff16815260200190815260200160002060006101000a81548160ff0219169083151502179055505b505050565b6000600660009054906101000a900473ffffffffffffffffffffffffffffffffffffffff16905090565b606060018054610ce090612914565b80601f0160208091040260200160405190810160405280929190818152602001828054610d0c90612914565b8015610d595780601f10610d2e57610100808354040283529160200191610d59565b820191906000526020600020905b815481529060010190602001808311610d3c57829003601f168201915b5050505050905090565b610d75610d6e61127c565b83836116f6565b5050565b610d848484846106ed565b610d98610d8f61127c565b85858585611865565b50505050565b3373ffffffffffffffffffffffffffffffffffffffff16610dbe8361080f565b73ffffffffffffffffffffffffffffffffffffffff1614610e14576040517f08c379a0000000000000000000000000000000000000000000000000000000008152600401610e0b90612cbd565b60405180910390fd5b600060086000848152602001908152602001600020905060008160020160008473ffffffffffffffffffffffffffffffffffffffff1673ffffffffffffffffffffffffffffffffffffffff16815260200190815260200160002060006101000a81548160ff021916908315150217905550505050565b6060610e95826111b7565b506000610ea0611a16565b90506000815111610ec05760405180602001604052806000815250610eeb565b80610eca84611a2d565b604051602001610edb929190612d48565b6040516020818303038152906040525b915050919050565b6000600560008473ffffffffffffffffffffffffffffffffffffffff1673ffffffffffffffffffffffffffffffffffffffff16815260200190815260200160002060008373ffffffffffffffffffffffffffffffffffffffff1673ffffffffffffffffffffffffffffffffffffffff16815260200190815260200160002060009054906101000a900460ff16905092915050565b60608060006008600085815260200190815260200160002090508060000181600101818054610fb590612914565b80601f0160208091040260200160405190810160405280929190818152602001828054610fe190612914565b801561102e5780601f106110035761010080835404028352916020019161102e565b820191906000526020600020905b81548152906001019060200180831161101157829003601f168201915b50505050509150808054806020026020016040519081016040528092919081815260200182805480156110b657602002820191906000526020600020905b8160009054906101000a900473ffffffffffffffffffffffffffffffffffffffff1673ffffffffffffffffffffffffffffffffffffffff168152602001906001019080831161106c575b505050505090509250925050915091565b6110cf611296565b600073ffffffffffffffffffffffffffffffffffffffff168173ffffffffffffffffffffffffffffffffffffffff16036111415760006040517f1e4fbdf700000000000000000000000000000000000000000000000000000000815260040161113891906121fa565b60405180910390fd5b61114a81611630565b50565b60007f01ffc9a7000000000000000000000000000000000000000000000000000000007bffffffffffffffffffffffffffffffffffffffffffffffffffffffff1916827bffffffffffffffffffffffffffffffffffffffffffffffffffffffff1916149050919050565b6000806111c383611afb565b9050600073ffffffffffffffffffffffffffffffffffffffff168173ffffffffffffffffffffffffffffffffffffffff160361123657826040517f7e27328900000000000000000000000000000000000000000000000000000000815260040161122d9190612461565b60405180910390fd5b80915050919050565b60006004600083815260200190815260200160002060009054906101000a900473ffffffffffffffffffffffffffffffffffffffff169050919050565b600033905090565b6112918383836001611b38565b505050565b61129e61127c565b73ffffffffffffffffffffffffffffffffffffffff166112bc610ca7565b73ffffffffffffffffffffffffffffffffffffffff161461131b576112df61127c565b6040517f118cdaa700000000000000000000000000000000000000000000000000000000815260040161131291906121fa565b60405180910390fd5b565b600073ffffffffffffffffffffffffffffffffffffffff168273ffffffffffffffffffffffffffffffffffffffff160361138f5760006040517f64a0ae9200000000000000000000000000000000000000000000000000000000815260040161138691906121fa565b60405180910390fd5b600061139d83836000611416565b9050600073ffffffffffffffffffffffffffffffffffffffff168173ffffffffffffffffffffffffffffffffffffffff16146114115760006040517f73c6ac6e00000000000000000000000000000000000000000000000000000000815260040161140891906121fa565b60405180910390fd5b505050565b60008061142284611afb565b9050600073ffffffffffffffffffffffffffffffffffffffff168373ffffffffffffffffffffffffffffffffffffffff161461146457611463818486611cfd565b5b600073ffffffffffffffffffffffffffffffffffffffff168173ffffffffffffffffffffffffffffffffffffffff16146114f5576114a6600085600080611b38565b6001600360008373ffffffffffffffffffffffffffffffffffffffff1673ffffffffffffffffffffffffffffffffffffffff168152602001908152602001600020600082825403925050819055505b600073ffffffffffffffffffffffffffffffffffffffff168573ffffffffffffffffffffffffffffffffffffffff1614611578576001600360008773ffffffffffffffffffffffffffffffffffffffff1673ffffffffffffffffffffffffffffffffffffffff168152602001908152602001600020600082825401925050819055505b846002600086815260200190815260200160002060006101000a81548173ffffffffffffffffffffffffffffffffffffffff021916908373ffffffffffffffffffffffffffffffffffffffff160217905550838573ffffffffffffffffffffffffffffffffffffffff168273ffffffffffffffffffffffffffffffffffffffff167fddf252ad1be2c89b69c2b068fc378daa952ba7f163c4a11628f55a4df523b3ef60405160405180910390a4809150509392505050565b6000600660009054906101000a900473ffffffffffffffffffffffffffffffffffffffff16905081600660006101000a81548173ffffffffffffffffffffffffffffffffffffffff021916908373ffffffffffffffffffffffffffffffffffffffff1602179055508173ffffffffffffffffffffffffffffffffffffffff168173ffffffffffffffffffffffffffffffffffffffff167f8be0079c531659141344cd1fd0a4f28419497f9722a3daafe3b4186f6b6457e060405160405180910390a35050565b600073ffffffffffffffffffffffffffffffffffffffff168273ffffffffffffffffffffffffffffffffffffffff160361176757816040517f5b08ba1800000000000000000000000000000000000000000000000000000000815260040161175e91906121fa565b60405180910390fd5b80600560008573ffffffffffffffffffffffffffffffffffffffff1673ffffffffffffffffffffffffffffffffffffffff16815260200190815260200160002060008473ffffffffffffffffffffffffffffffffffffffff1673ffffffffffffffffffffffffffffffffffffffff16815260200190815260200160002060006101000a81548160ff0219169083151502179055508173ffffffffffffffffffffffffffffffffffffffff168373ffffffffffffffffffffffffffffffffffffffff167f17307eab39ab6107e8899845ad3d59bd9653f200f220920489ca2b5937696c31836040516118589190612089565b60405180910390a3505050565b60008373ffffffffffffffffffffffffffffffffffffffff163b1115611a0f578273ffffffffffffffffffffffffffffffffffffffff1663150b7a02868685856040518563ffffffff1660e01b81526004016118c49493929190612dc1565b6020604051808303816000875af192505050801561190057506040513d601f19601f820116820180604052508101906118fd9190612e22565b60015b611984573d8060008114611930576040519150601f19603f3d011682016040523d82523d6000602084013e611935565b606091505b50600081510361197c57836040517f64a0ae9200000000000000000000000000000000000000000000000000000000815260040161197391906121fa565b60405180910390fd5b805181602001fd5b63150b7a0260e01b7bffffffffffffffffffffffffffffffffffffffffffffffffffffffff1916817bffffffffffffffffffffffffffffffffffffffffffffffffffffffff191614611a0d57836040517f64a0ae92000000000000000000000000000000000000000000000000000000008152600401611a0491906121fa565b60405180910390fd5b505b5050505050565b606060405180602001604052806000815250905090565b606060006001611a3c84611dc1565b01905060008167ffffffffffffffff811115611a5b57611a5a6122cb565b5b6040519080825280601f01601f191660200182016040528015611a8d5781602001600182028036833780820191505090505b509050600082602001820190505b600115611af0578080600190039150507f3031323334353637383961626364656600000000000000000000000000000000600a86061a8153600a8581611ae457611ae3612e4f565b5b04945060008503611a9b575b819350505050919050565b60006002600083815260200190815260200160002060009054906101000a900473ffffffffffffffffffffffffffffffffffffffff169050919050565b8080611b715750600073ffffffffffffffffffffffffffffffffffffffff168273ffffffffffffffffffffffffffffffffffffffff1614155b15611ca5576000611b81846111b7565b9050600073ffffffffffffffffffffffffffffffffffffffff168373ffffffffffffffffffffffffffffffffffffffff1614158015611bec57508273ffffffffffffffffffffffffffffffffffffffff168173ffffffffffffffffffffffffffffffffffffffff1614155b8015611bff5750611bfd8184610ef3565b155b15611c4157826040517fa9fbf51f000000000000000000000000000000000000000000000000000000008152600401611c3891906121fa565b60405180910390fd5b8115611ca357838573ffffffffffffffffffffffffffffffffffffffff168273ffffffffffffffffffffffffffffffffffffffff167f8c5be1e5ebec7d5bd14f71427d1e84f3dd0314c0f7b2291e5b200ac8c7c3b92560405160405180910390a45b505b836004600085815260200190815260200160002060006101000a81548173ffffffffffffffffffffffffffffffffffffffff021916908373ffffffffffffffffffffffffffffffffffffffff16021790555050505050565b611d08838383611f14565b611dbc57600073ffffffffffffffffffffffffffffffffffffffff168373ffffffffffffffffffffffffffffffffffffffff1603611d7d57806040517f7e273289000000000000000000000000000000000000000000000000000000008152600401611d749190612461565b60405180910390fd5b81816040517f177e802f000000000000000000000000000000000000000000000000000000008152600401611db3929190612e7e565b60405180910390fd5b505050565b600080600090507a184f03e93ff9f4daa797ed6e38ed64bf6a1f0100000000000000008310611e1f577a184f03e93ff9f4daa797ed6e38ed64bf6a1f0100000000000000008381611e1557611e14612e4f565b5b0492506040810190505b6d04ee2d6d415b85acef81000000008310611e5c576d04ee2d6d415b85acef81000000008381611e5257611e51612e4f565b5b0492506020810190505b662386f26fc100008310611e8b57662386f26fc100008381611e8157611e80612e4f565b5b0492506010810190505b6305f5e1008310611eb4576305f5e1008381611eaa57611ea9612e4f565b5b0492506008810190505b6127108310611ed9576127108381611ecf57611ece612e4f565b5b0492506004810190505b60648310611efc5760648381611ef257611ef1612e4f565b5b0492506002810190505b600a8310611f0b576001810190505b80915050919050565b60008073ffffffffffffffffffffffffffffffffffffffff168373ffffffffffffffffffffffffffffffffffffffff1614158015611fcc57508273ffffffffffffffffffffffffffffffffffffffff168473ffffffffffffffffffffffffffffffffffffffff161480611f8d5750611f8c8484610ef3565b5b80611fcb57508273ffffffffffffffffffffffffffffffffffffffff16611fb38361123f565b73ffffffffffffffffffffffffffffffffffffffff16145b5b90509392505050565b6000604051905090565b600080fd5b600080fd5b60007fffffffff0000000000000000000000000000000000000000000000000000000082169050919050565b61201e81611fe9565b811461202957600080fd5b50565b60008135905061203b81612015565b92915050565b60006020828403121561205757612056611fdf565b5b60006120658482850161202c565b91505092915050565b60008115159050919050565b6120838161206e565b82525050565b600060208201905061209e600083018461207a565b92915050565b600081519050919050565b600082825260208201905092915050565b60005b838110156120de5780820151818401526020810190506120c3565b60008484015250505050565b6000601f19601f8301169050919050565b6000612106826120a4565b61211081856120af565b93506121208185602086016120c0565b612129816120ea565b840191505092915050565b6000602082019050818103600083015261214e81846120fb565b905092915050565b6000819050919050565b61216981612156565b811461217457600080fd5b50565b60008135905061218681612160565b92915050565b6000602082840312156121a2576121a1611fdf565b5b60006121b084828501612177565b91505092915050565b600073ffffffffffffffffffffffffffffffffffffffff82169050919050565b60006121e4826121b9565b9050919050565b6121f4816121d9565b82525050565b600060208201905061220f60008301846121eb565b92915050565b61221e816121d9565b811461222957600080fd5b50565b60008135905061223b81612215565b92915050565b6000806040838503121561225857612257611fdf565b5b60006122668582860161222c565b925050602061227785828601612177565b9150509250929050565b6000806040838503121561229857612297611fdf565b5b60006122a685828601612177565b92505060206122b78582860161222c565b9150509250929050565b600080fd5b600080fd5b7f4e487b7100000000000000000000000000000000000000000000000000000000600052604160045260246000fd5b612303826120ea565b810181811067ffffffffffffffff82111715612322576123216122cb565b5b80604052505050565b6000612335611fd5565b905061234182826122fa565b919050565b600067ffffffffffffffff821115612361576123606122cb565b5b61236a826120ea565b9050602081019050919050565b82818337600083830152505050565b600061239961239484612346565b61232b565b9050828152602081018484840111156123b5576123b46122c6565b5b6123c0848285612377565b509392505050565b600082601f8301126123dd576123dc6122c1565b5b81356123ed848260208601612386565b91505092915050565b6000806040838503121561240d5761240c611fdf565b5b600083013567ffffffffffffffff81111561242b5761242a611fe4565b5b612437858286016123c8565b92505060206124488582860161222c565b9150509250929050565b61245b81612156565b82525050565b60006020820190506124766000830184612452565b92915050565b60008060006060848603121561249557612494611fdf565b5b60006124a38682870161222c565b93505060206124b48682870161222c565b92505060406124c586828701612177565b9150509250925092565b600067ffffffffffffffff8211156124ea576124e96122cb565b5b602082029050602081019050919050565b600080fd5b600061251361250e846124cf565b61232b565b90508083825260208201905060208402830185811115612536576125356124fb565b5b835b8181101561255f578061254b888261222c565b845260208401935050602081019050612538565b5050509392505050565b600082601f83011261257e5761257d6122c1565b5b813561258e848260208601612500565b91505092915050565b600080604083850312156125ae576125ad611fdf565b5b60006125bc85828601612177565b925050602083013567ffffffffffffffff8111156125dd576125dc611fe4565b5b6125e985828601612569565b9150509250929050565b60006020828403121561260957612608611fdf565b5b60006126178482850161222c565b91505092915050565b6126298161206e565b811461263457600080fd5b50565b60008135905061264681612620565b92915050565b6000806040838503121561266357612662611fdf565b5b60006126718582860161222c565b925050602061268285828601612637565b9150509250929050565b600067ffffffffffffffff8211156126a7576126a66122cb565b5b6126b0826120ea565b9050602081019050919050565b60006126d06126cb8461268c565b61232b565b9050828152602081018484840111156126ec576126eb6122c6565b5b6126f7848285612377565b509392505050565b600082601f830112612714576127136122c1565b5b81356127248482602086016126bd565b91505092915050565b6000806000806080858703121561274757612746611fdf565b5b60006127558782880161222c565b94505060206127668782880161222c565b935050604061277787828801612177565b925050606085013567ffffffffffffffff81111561279857612797611fe4565b5b6127a4878288016126ff565b91505092959194509250565b600080604083850312156127c7576127c6611fdf565b5b60006127d58582860161222c565b92505060206127e68582860161222c565b9150509250929050565b600081519050919050565b600082825260208201905092915050565b6000819050602082019050919050565b612825816121d9565b82525050565b6000612837838361281c565b60208301905092915050565b6000602082019050919050565b600061285b826127f0565b61286581856127fb565b93506128708361280c565b8060005b838110156128a1578151612888888261282b565b975061289383612843565b925050600181019050612874565b5085935050505092915050565b600060408201905081810360008301526128c881856120fb565b905081810360208301526128dc8184612850565b90509392505050565b7f4e487b7100000000000000000000000000000000000000000000000000000000600052602260045260246000fd5b6000600282049050600182168061292c57607f821691505b60208210810361293f5761293e6128e5565b5b50919050565b60008190508160005260206000209050919050565b60006020601f8301049050919050565b600082821b905092915050565b6000600883026129a77fffffffffffffffffffffffffffffffffffffffffffffffffffffffffffffffff8261296a565b6129b1868361296a565b95508019841693508086168417925050509392505050565b6000819050919050565b60006129ee6129e96129e484612156565b6129c9565b612156565b9050919050565b6000819050919050565b612a08836129d3565b612a1c612a14826129f5565b848454612977565b825550505050565b600090565b612a31612a24565b612a3c8184846129ff565b505050565b5b81811015612a6057612a55600082612a29565b600181019050612a42565b5050565b601f821115612aa557612a7681612945565b612a7f8461295a565b81016020851015612a8e578190505b612aa2612a9a8561295a565b830182612a41565b50505b505050565b600082821c905092915050565b6000612ac860001984600802612aaa565b1980831691505092915050565b6000612ae18383612ab7565b9150826002028217905092915050565b612afa826120a4565b67ffffffffffffffff811115612b1357612b126122cb565b5b612b1d8254612914565b612b28828285612a64565b600060209050601f831160018114612b5b5760008415612b49578287015190505b612b538582612ad5565b865550612bbb565b601f198416612b6986612945565b60005b82811015612b9157848901518255600182019150602085019450602081019050612b6c565b86831015612bae5784890151612baa601f891682612ab7565b8355505b6001600288020188555050505b505050505050565b7f4e487b7100000000000000000000000000000000000000000000000000000000600052601160045260246000fd5b6000612bfd82612156565b91507fffffffffffffffffffffffffffffffffffffffffffffffffffffffffffffffff8203612c2f57612c2e612bc3565b5b600182019050919050565b6000606082019050612c4f60008301866121eb565b612c5c6020830185612452565b612c6960408301846121eb565b949350505050565b7f4e6f7420746865206f776e657200000000000000000000000000000000000000600082015250565b6000612ca7600d836120af565b9150612cb282612c71565b602082019050919050565b60006020820190508181036000830152612cd681612c9a565b9050919050565b7f4e487b7100000000000000000000000000000000000000000000000000000000600052603260045260246000fd5b600081905092915050565b6000612d22826120a4565b612d2c8185612d0c565b9350612d3c8185602086016120c0565b80840191505092915050565b6000612d548285612d17565b9150612d608284612d17565b91508190509392505050565b600081519050919050565b600082825260208201905092915050565b6000612d9382612d6c565b612d9d8185612d77565b9350612dad8185602086016120c0565b612db6816120ea565b840191505092915050565b6000608082019050612dd660008301876121eb565b612de360208301866121eb565b612df06040830185612452565b8181036060830152612e028184612d88565b905095945050505050565b600081519050612e1c81612015565b92915050565b600060208284031215612e3857612e37611fdf565b5b6000612e4684828501612e0d565b91505092915050565b7f4e487b7100000000000000000000000000000000000000000000000000000000600052601260045260246000fd5b6000604082019050612e9360008301856121eb565b612ea06020830184612452565b939250505056fea264697066735822122003a5896d1b2b574c40943e49248a791b3765bc2916b99ef3f31d6f3cc448d26064736f6c634300081c0033",
  "linkReferences": {},
  "deployedLinkReferences": {}
}